8=FIX.4.2|9=113|35=D|34=10|49=CLIENT11|52=20220719-14:31:33.480|56=EXEC11|11=3378078939400|21=1|55=5.HK|54=1|38=10000|40=2|44=65|10=001|