> 8=FIX.4.2|9=125|35=D|34=3|49=BANZAI1|52=20141126-05:39:32.202|56=EXEC1|11=2|21=3|38=1000|40=1|44=100|54=1|55=6758.T|60=20141126-05:39:32.201|10=018|
> 8=FIX.4.2|9=125|35=D|34=4|49=BANZAI1|52=20141126-05:39:32.315|56=EXEC1|11=3|21=3|38=1000|40=1|44=100|54=1|55=6758.T|60=20141126-05:39:32.315|10=031|
> 8=FIX.4.2|9=125|35=D|34=5|49=BANZAI1|52=20141126-05:39:32.429|56=EXEC1|11=4|21=3|38=1000|40=1|44=100|54=1|55=6758.T|60=20141126-05:39:32.429|10=045|
> 8=FIX.4.2|9=125|35=D|34=6|49=BANZAI1|52=20141126-05:39:32.542|56=EXEC1|11=5|21=3|38=1000|40=1|44=100|54=1|55=6758.T|60=20141126-05:39:32.542|10=039|
> 8=FIX.4.2|9=125|35=D|34=7|49=BANZAI1|52=20141126-05:39:32.658|56=EXEC1|11=6|21=3|38=1000|40=1|44=100|54=1|55=6758.T|60=20141126-05:39:32.657|10=056|